:020000040800F2
:100000000004002047010008A5030008A70300081A
:10001000AB030008AF030008B303000800000000B2
:10002000000000000000000000000000B70300080E
:10003000B903000800000000BB030008BD0300086E
:1000400067010008670100086701000867010008F0
:1000500067010008670100086701000867010008E0
:1000600067010008670100086701000867010008D0
:1000700067010008670100086701000867010008C0
:1000800067010008670100086701000867010008B0
:1000900067010008670100086701000867010008A0
:1000A0006701000867010008670100086701000890
:1000B000E502000867010008670100086701000801
:1000C0006701000867010008670100086701000870
:1000D0006701000867010008670100086701000860
:1000E0006701000867010008670100086701000850
:1000F0006701000867010008670100086701000840
:10010000670100086701000867010008670100082F
:10011000670100086701000867010008670100081F
:10012000670100086701000867010008670100080F
:10013000DFF80CD002F0D2FA00480047B7010008FF
:1001400008030020704708488047084981F3088861
:1001500007480047FEE7FEE7FEE7FEE7FEE7FEE7AB
:10016000FEE7FEE7FEE7FEE7450100080803002082
:10017000310100082DE9F0410026002417E0002598
:1001800007E0804800EBC50030F814000644681C06
:10019000C5B20A2DF5DB0A2096FBF0F7384602F0CF
:1001A00043FA794941F824000026601CC4B2042CAB
:1001B000E5DBBDE8F08102F0A9F800F001F902F0FA
:1001C00061F902F06DF90121704801F05CF802F06C
:1001D00083F940F2E73140F2CF2002F092F964E077
:1001E000FFF7C8FF00206A49086067494868694905
:1001F00002F0AAF905464FF08B4102F0D7F9044608
:1002000002F01BFA624948605F498868614902F060
:100210009BF905464FF08B4102F0C8F9044602F005
:100220000CFA5B4988605849C8685A4902F08CF951
:1002300005464FF08B4102F0B9F9044602F0FDF992
:100240005349C8604FF6FE705349086050484068F3
:100250004FF47A7148434E49496840F6E442511AD6
:1002600090FBF1F000EB4000C0004B49486048486B
:1002700080684FF47A71484345498968511A90FB68
:10028000F1F000EB4000C000434988604048C0687E
:100290004FF47A7148433E49C968511A90FBF1F016
:1002A00000EB4000C0003C49C86099E770B588B0D9
:1002B00006460024002500BF05E056F824004DF84E
:1002C0002400601C84B2082CF7DB002506E01DF832
:1002D0002510324800F0EAF8681C85B2082DF6DBDC
:1002E00008B070BD10B50121880701F01AFF002881
:1002F00047D00121880701F025FF27490868C11769
:1003000000EB11610912A0EB0121254A116022497D
:100310000868C11700EB1161091251601E49486855
:10032000C11700EB11610912A0EB012191601A497C
:100330004868C11700EB11610912D160164988683D
:10034000C11700EB11610912A0EB012111611249E3
:100350008868C11700EB1161091251610E49C86824
:10036000C11700EB11610912A0EB012191610A494B
:10037000C868C11700EB11610912D1611046FFF77F
:1003800095FF10BD640000204400002000240140BF
:100390001400002000404E45540000200038014069
:1003A00024000020704700BFFEE700BFFEE700BF4B
:1003B000FEE700BFFEE770477047704770470000D8
:1003C00000B585B0012144F2040000F087FB4FF432
:1003D0000070ADF8100018208DF8130003208DF880
:1003E000120004A9394800F0DDF84FF48060ADF840
:1003F000100004208DF8130004A9344800F0D2F84E
:100400004FF4E13000900020ADF80400ADF8060094
:10041000ADF80800ADF80C000C20ADF80A006946F4
:100420002B4800F008FC0121294800F072FC05B0BF
:1004300000BD10B504462146254800F0D2FC00BF9F
:100440008021234800F024FD0028F9D010BD10B50C
:10045000044620211E4800F01BFD08B9002010BDF5
:100460001B4800F0C2FC20700120F8E708B500200E
:1004700000900AE004E09DF80010154800F0B1FC7F
:100480006846FFF7E4FF0028F5D1F3E770B50446AE
:100490000D46E1B20E4800F0A4FC00BF0C480088F5
:1004A00000F080000028F9D0204670BD70B50446E9
:1004B0000D462946204600F094FC00BF80210448E8
:1004C00000F0E6FC0028F9D070BD000000080140F3
:1004D0000038014010B50446C649601A8C422FD03E
:1004E00009DCC548204480B1B0F5806F16D0B0F566
:1004F000006F4AD11BE0B0F5806F2AD0B0F5006FD5
:1005000030D0B0F5406F40D135E00121042000F03B
:10051000FFFA0021042000F0FBFA37E00121082057
:1005200000F0F6FA0021082000F0F2FA2EE0012196
:10053000102000F0EDFA0021102000F0E9FA25E08B
:100540000121202000F0E4FA0021202000F0E0FA50
:100550001CE00121402000F0DBFA0021402000F0E7
:10056000D7FA13E00121802000F0D2FA0021802088
:1005700000F0CEFA0AE00121080200F0C9FA0021D9
:100580004FF4807000F0C4FA00E000BF00BF10BD5F
:1005900010B50121084600F0BBFA0021012000F04F
:1005A000B7FA10BD2DE9F0410246002500260020D3
:1005B00000230024002791F803C00CF00F0591F8E8
:1005C00003C00CF0100CBCF1000F03D091F802C076
:1005D0004CEA050591F800C0BCF1000F31D0146859
:1005E00000202BE04FF0010C0CFA00F3B1F800C032
:1005F0000CEA03069E4220D183004FF00F0C0CFA48
:1006000003F7BC4305FA03FC4CEA040491F803C069
:10061000BCF1280F06D14FF0010C0CFA00FCC2F817
:1006200014C00AE091F803C0BCF1480F05D14FF0A7
:10063000010C0CFA00FCC2F810C0401C0828D1D3F1
:100640001460B1F800C0BCF1FF0F34DD5468002025
:100650002EE000F1080C4FF0010808FA0CF3B1F895
:1006600000C00CEA03069E4221D183004FF00F0C1C
:100670000CFA03F7BC4305FA03FC4CEA040491F8B6
:1006800003C0BCF1280F05D100F1080C08FA0CF8E2
:10069000C2F8148091F803C0BCF1480F07D100F1F3
:1006A000080C4FF0010808FA0CF8C2F81080401C42
:1006B0000828CED35460BDE8F0814FF6FF71018069
:1006C000022181700421C1707047024600209368A6
:1006D0000B400BB1012000E0002070470146886804
:1006E00080B2704702460020D3680B400BB1012056
:1006F00000E0002070470146C86880B27047016181
:100700007047416170470AB1016100E04161704783
:10071000C16070474FF480320A4382618161826117
:1007200082698269704702460020344B18684FF690
:100730008073184040EA02100843304B186070473D
:100740002F49C8617047F0B50A46002300240021F4
:1007500000252A4E7168C0F3034583B200F44016A9
:10076000B6F5401F08D121F07061244E766826F05E
:100770007066224F7E6012E000F48016B6F5801F8E
:1007800006D1032606FA05F4A14341F0706106E0A4
:10079000460D360103FA06F6B14341F0706122B10D
:1007A000460D360103FA06F63143144E7160F0BD72
:1007B00030B500228B071C0F0F2303FA04F20F4BF6
:1007C00008338C1053F8243093430C4C08348D10AC
:1007D00044F8253023468C1053F824308C07240F1E
:1007E00000FA04F42343054C08348D1044F82530F6
:1007F00030BD00000014014000F8FEBF00000140C1
:1008000000002042DE48006840F00100DC4908603A
:1008100008464068DB490840D949486008460068F6
:10082000D9490840D64908600846006820F480206D
:1008300008600846406820F4FE0048600020886098
:100840007047CF49096821F48031CD4A11601146C3
:10085000096821F480211160B0F5803F03D0B0F524
:10086000802F0ED106E0C649096841F48031C44AA0
:10087000116007E0C249096841F4A021C04A116033
:1008800000E000BF00BF704710B501460022002302
:1008900000204A11012A02D1B94C236806E0022A3D
:1008A00002D1B74C236A01E0B54C636A01F01F0224
:1008B000012494401C400CB1012000E0002010BD38
:1008C00038B5002000900024002500BF3120FFF73C
:1008D000DBFF05460098401C00901DB90098B0F55C
:1008E000A06FF3D13120FFF7CFFF08B1012400E062
:1008F0000024204638BD01460020A14A106820F09F
:10090000F80040EAC10010607047A04908607047D5
:10091000024600209A4B586820F47C1042EA0103FA
:100920001843974B586070479849086670470146CE
:100930000020934A506820F003000843506070473D
:100940008F48406800F00C007047014600208C4A38
:10095000506820F0F00008435060704701460020C6
:10096000874A506820F4E0600843506070470146B1
:100970000020834A506820F4605040EAC100506073
:10098000704729B17E4A527A02437D4B5A7204E085
:100990007B4A527A82437A4B5A7270477B49D831EC
:1009A0000860704701460020754A506820F44040B6
:1009B0000843506070470021714A20321170704A1C
:1009C00082F82010012802D004280AD104E0012175
:1009D0006B4A2032117005E00521694A20321170FE
:1009E00000E000BF00BF7047694908607047644974
:1009F000096A0143624A11627047654944390860D7
:100A0000704730B500210022002400235C4D6D6842
:100A100005F00C0121B1042905D0082923D105E0F6
:100A20005C4D056022E05B4D05601FE0544D6D6834
:100A300005F47012022505EB9242514D6D6805F4E4
:100A400080341CB9544D554305600BE04C4D6D6826
:100A500005F400351DB1504D5543056002E04D4D84
:100A60005543056002E04B4D056000BF00BF444D9B
:100A70006D6805F0F0010909484D6B5C0568DD40C3
:100A800045603F4D6D6805F4E061090A434D6B5CBC
:100A90004568DD4085603A4D6D6805F46051C90ACE
:100AA0003E4D6B5C4568DD40C560354D6D6805F4B5
:100AB0004041890B3A4D6B5CC568B5FBF3F50561A8
:100AC00030BD29B12E4A526902432D4B5A6104E0D0
:100AD0002B4A526982432A4B5A61704729B1284AEE
:100AE00092690243264B9A6104E0254A9269824347
:100AF000234B9A61704729B1214AD2690243204BA6
:100B0000DA6104E01E4AD26982431D4BDA61704704
:100B100029B11B4AD2680243194BDA6004E0184A33
:100B2000D2688243164BDA60704729B1144A1269C1
:100B30000243134B1A6104E0114A12698243104BBD
:100B40001A61704712494039086070470F49C864FC
:100B500070470B49C87170470948406A40F080707F
:100B600007494862704701460020054A92680A40DA
:100B70000AB1012000E000207047014988727047E7
:100B8000001002400000FFF8FFFFF6FE00004242A6
:100B90008004424200127A0000093D00000000205B
:100BA0001000002010B50446D749601A8C422BD0A3
:100BB00006DCD648204498B1B0F5806F38D119E0F2
:100BC000B0F5806F2AD0B0F56C4F31D10121880388
:100BD000FFF79EFF00214FF48040FFF799FF28E0C8
:100BE00001214804FFF7A1FF00214FF40030FFF777
:100BF0009CFF1EE001218804FFF797FF00214FF4BE
:100C00008020FFF792FF14E00121C804FFF78DFF59
:100C100000214FF40020FFF788FF0AE001210805BA
:100C2000FFF783FF00214FF48010FFF77EFF00E005
:100C300000BF00BF10BD2DE9F04786B005460E4647
:100C40000024A24600BF00BF00272F462C8A4CF686
:100C5000FF700440F08804432C82AC894EF6F310F8
:100C60000440B08831890843718908430443AC814A
:100C7000AC8A4FF6FF400440B0890443AC8201A81F
:100C8000FFF7BFFEA248874202D1DDF810A001E0C5
:100C9000DDF80CA00AEBCA0000EB0A1031688900ED
:100CA000B0FBF1F86420B8FBF0F0040120096421E6
:100CB00001FB1089322000EB0910B0FBF1F000F0CD
:100CC0000F0004432C8106B0BDE8F0874FF41651A5
:100CD000016000218180C18001810C2141810021BE
:100CE0008181704710B502460020108A4FF2FF0341
:100CF00018400B884C8823438C882343CC8823439B
:100D00001843108210BD0021018041808180C18084
:100D1000704721B1828942F40052828104E08289C5
:100D20004DF6FF731A4082817047F0B503460024E8
:100D30000026002500201846C1F3421401F01F06CA
:100D4000012707FA06F5012C01D10C3004E0022C32
:100D500001D1103000E014301AB107682F4307604A
:100D600002E00768AF430760F0BD1AB1838A0B4306
:100D7000838202E0838A8B4383827047028A4FF624
:100D8000F0731A400282028A0A4302827047828903
:100D90004FF2FF731A40828182890A438281704731
:100DA00021B1828942F00202828104E082894FF6F9
:100DB000FD731A4082817047028A4FF6DF731A4032
:100DC0000282028A0A430282704721B1028A42F4F7
:100DD0008042028204E0028A4BF6FF731A400282CC
:100DE0007047C1F308028280704701468888C0F3CB
:100DF00008007047818941F0010181817047028BB1
:100E0000D2B20283028B42EA012202837047028B34
:100E100002F47F420283028B0A430283704721B1AE
:100E2000828A42F02002828204E0828A4FF6DF73D7
:100E30001A408282704721B1828A42F01002828277
:100E400004E0828A4FF6EF731A408282704721B124
:100E5000828A42F00802828204E0828A4FF6F773A7
:100E60001A4082827047828A4FF6FB731A40828250
:100E7000828A0A438282704721B1828A42F002024A
:100E8000828204E0828A4FF6FD731A4082827047A4
:100E90000246002013880B400BB1012000E0002027
:100EA0007047CA430280704770B502460B46002463
:100EB000002100250020C3F3421503F01F01012685
:100EC00006FA01F1012D02D19689314006E0022D8A
:100ED00002D1168A314001E0968A31401C12012667
:100EE00006FA04F41688344011B10CB1012000E078
:100EF000002070BD10B5002200230A120124944086
:100F0000A3B2DC43048010BD004C004000BCFFBF16
:100F100000380140016821F00101016000210160F9
:100F200041608160C160874A811A90425BD012DCC7
:100F3000854AA0EB020190423AD007DC8349014484
:100F4000D9B1142922D028297AD128E0142938D0FF
:100F5000282975D13EE0B1F56C7F5BD006DCB1F598
:100F6000627F49D0B1F5677F6AD14CE0B1F5717FFE
:100F700057D0B1F5767F63D15BE073494439496856
:100F800041F00F01704A443A51605AE06E494439C9
:100F9000496841F0F0016C4A443A516051E06A49B5
:100FA0004439496841F47061674A443A516048E005
:100FB00065494439496841F47041634A443A516093
:100FC0003FE061494439496841F470215E4A443A3E
:100FD000516036E05C494439496841F470015A4A2D
:100FE000443A51602DE058494439496841F07061F4
:100FF000554A443A516024E05549096841F00F01CF
:10100000534A11601DE05249096841F0F001504A0D
:10101000116016E04E49096841F470614C4A116054
:101020000FE04B49096841F47041494A116008E0FA
:1010300006E04749096841F47021454A116000E023
:1010400000BF00BF704710B50022026847F6F0737A
:101050009A430C6A8B6823430C6923434C692343EE
:101060008C692343CC6923434C6A23438C6A234312
:101070001A430260CB6843600B6883604B68C360AF
:1010800010BD0021016041608160C160016141616A
:101090008161C161016241628162704721B1026870
:1010A00042F00102026003E0026822F001020260E5
:1010B00070471AB103680B43036002E003688B4377
:1010C000036070470146486880B2704701460020BF
:1010D000002201F080531BB11D4B1B1F1A6802E058
:1010E000194B443B1A6802EA01030BB1012000E0EE
:1010F0000020704700F0805111B11549086002E0EE
:10110000114944394860704701460020002201F02F
:1011100080531BB10E4B1B1F1A6802E00A4B443B65
:101120001A6802EA01030BB1012000E000207047B9
:1011300000F0805111B10649086002E002494439CB
:10114000486070478000024044000240F8FFFDBF45
:101150000404024010B50446F748204430B1B0F50D
:10116000806F0DD0B0F5C05F1ED113E001214802A1
:10117000FFF7CEFC00214FF40070FFF7C9FC14E02C
:1011800001218802FFF7C4FC00214FF48060FFF7C3
:10119000BFFC0AE00121C803FFF7BAFC00214FF4AD
:1011A0000040FFF7B5FC00E000BF00BF10BD30B548
:1011B0000246002000235068E04C20400D790C6866
:1011C00044EA0524204350609068DD4C2040D1E97A
:1011D00002542C434D7944EA450420439060D06A80
:1011E00020F470000C7C641E1C43E3B240EA035000
:1011F000D06230BD00210160017141718160C16028
:1012000001210174704721B1826842F001028260BD
:1012100003E0826822F001028260704721B1826897
:1012200042F48072826003E0826822F480728260FD
:10123000704710B50023CBB21AB144681C43446018
:1012400002E044689C43446010BD816841F008019D
:1012500081607047014600208A6802F008020AB1E6
:10126000012000E000207047816841F004018160A6
:101270007047014600208A6802F004020AB101208A
:1012800000E00020704721B1826842F4A002826031
:1012900003E0826822F4A0028260704701460020C9
:1012A0008A6802F480020AB1012000E00020704741
:1012B00010B50A4600210023416821F46041531E05
:1012C00041EA4331416010BD21B1426842F40062FD
:1012D000426003E0426822F4006242607047F0B569
:1012E00004460D4600200021092D11DDE068A5F11E
:1012F0000A0606EB4607072606FA07F18843A5F11A
:101300000A0606EB460603FA06F10843E0600CE025
:10131000206905EB4507072606FA07F1884305EB28
:10132000450603FA06F108432061072A0FDA606BCD
:10133000561E06EB86071F2606FA07F18843561E3F
:1013400006EB860605FA06F10843606322E00D2AE3
:101350000FDA206BD61F06EB86071F2606FA07F169
:101360008843D61F06EB860605FA06F1084320637C
:1013700010E0E06AA2F10D0606EB86071F2606FACA
:1013800007F18843A2F10D0606EB860605FA06F181
:101390000843E062F0BD21B1826842F480128260AD
:1013A00003E0826822F48012826070470146C86CB4
:1013B00080B2704763480068704721B1426842F4C8
:1013C0008062426003E0426822F4806242607047BB
:1013D00021B1426842F48052426003E0426822F444
:1013E0008052426070470A460021816821F4E04142
:1013F00011438160704721B1826842F400428260EB
:1014000003E0826822F400428260704721B1826862
:1014100042F40212826003E0826822F402128260C7
:101420007047014600208A6802F400120AB10120C8
:1014300000E000207047F0B5044615460020002269
:101440000026092911DDE068A1F10A0707EB470C26
:10145000072707FA0CF29043A1F10A0707EB4707A9
:1014600003FA07F21043E0600CE0206901EB410C45
:10147000072707FA0CF2904301EB410703FA07F242
:1014800010432061A06BC0F30156EF1C06F1010C64
:10149000A7EB0C0707EB870C1F2707FA0CF290430A
:1014A000EF1C06F1010CA7EB0C0707EB870701FA0D
:1014B00007F21043A063F0BD10B50A4600210023D7
:1014C000816B21F44011531E41EA0351816310BD29
:1014D0004250704702465018806A80B270470A46F0
:1014E00000214168184B1940114341607047416227
:1014F000826270470A460021416821F01F011143B2
:101500004160704740B10F494439096841F4000116
:101510000C4A443A116007E00A494439096821F449
:101520000001084A443A11607047024600201368DF
:101530000B405BB101200AE000DCFEBFFFFEF0FFC4
:10154000FDF7F1FF4C240140FFFD3FFF00207047F5
:10155000CA430260704770B5024600200023002491
:101560000B125568CEB205EA060415681D4015B188
:101570000CB1012000E0002070BD00220A12D3430C
:101580000360704710B50446F749601A8C4245D095
:101590000CDCB4F1804F1DD0F448204418B3B0F5F2
:1015A000806F29D0B0F5006F54D12EE0B0F5806F78
:1015B0003DD0B0F58E3F03D0B0F5923F4AD13FE029
:1015C0000121C802FFF7A4FA00214FF40060FFF7E1
:1015D0009FFA40E001210846FFF7A7FA0021012009
:1015E000FFF7A3FA37E001210220FFF79EFA00215E
:1015F0000220FFF79AFA2EE001210420FFF795FA66
:1016000000210420FFF791FA25E001210820FFF7CF
:101610008CFA00210820FFF788FA1CE00121102035
:10162000FFF783FA00211020FFF77FFA13E0012172
:101630002020FFF77AFA00212020FFF776FA0AE04F
:1016400001214803FFF764FA00214FF40050FFF72F
:101650005FFA00E000BF00BF10BD028802F08F02F9
:101660000280CA884B881A4303881A4302808A88FA
:1016700082850A880285BE4A904202D0BD4A9042C5
:1016800001D10A7A028601228282704770B5002455
:1016900000220023058C4FF6FE7635400584028C2F
:1016A0008388048B4FF68F752C400D882C43751E54
:1016B0002A400D892A434D882A43CD888586AC4D22
:1016C000A84202D0AB4DA84213D14FF6F7752A407D
:1016D0004D892A434FF6FB752A408D882A4347F6E9
:1016E000FF652B4047F6FF552B408D892B43CD8955
:1016F0002B4383800483028470BD70B500240022D4
:101700000023058C4FF6EF7635400584028C8388E4
:10171000048B48F6FF752C400D884FF6FF7606EADD
:1017200005252C434FF6DF752A400D8906EA05157D
:101730002A434D8806EA05152A43CD8805878C4D36
:10174000A84202D08B4DA8421DD14FF67F752A408A
:101750004D894FF6FF7606EA05152A434FF6BF7509
:101760002A408D8806EA05152A4347F6FF352B40A7
:1017700047F2FF752B408D8906EA85052B43CD89FD
:1017800006EA85052B4383800483028470BD70B50F
:10179000002400220023058C4FF6FF6635400584A7
:1017A000028C8388848B4FF68F752C400D882C43D8
:1017B0004FF6FF552A400D894FF6FF7606EA0525BC
:1017C0002A434D8806EA05252A43CD888587684D3A
:1017D000A84202D0674DA8421DD14FF2FF752A40A2
:1017E0004D894FF6FF7606EA05252A434FF6FF3569
:1017F0002A408D8806EA05252A4346F6FF752B40C8
:1018000045F6FF752B408D8906EA05152B43CD89DA
:1018100006EA05152B4383808483028470BD70B56E
:10182000002400220023058C4EF6FF763540058407
:10183000028C8388848B48F6FF752C400D884FF608
:10184000FF7606EA05252C434DF6FF752A400D89E3
:1018500006EA05352A434D8806EA05352A43CD8830
:10186000A0F84050424DA84202D0424DA84207D1B4
:10187000C3F30D038D894FF6FF7606EA85152B43DA
:1018800083808483028470BD828B4FF2FF331A40C1
:101890008283828B4FF6FF7303EA01231A4382830C
:1018A0007047F0B50C461546002100220026078C33
:1018B0004EF6FF7C07EA0C070784818B028C4FF6FB
:1018C000FF7707EA043640F6FF4739404FF6FF77C7
:1018D00007EA05274FF6FF7C0CEA033C47EA0C07B2
:1018E00039434DF6FF773A4046F480573A438183B7
:1018F0000284F0BD828B4FF6F3731A408283828B91
:101900000A4382837047F0B50C4615460021002239
:101910000026078C4FF6FF6C07EA0C070784818BC3
:10192000028C4FF6FF7707EA04264FF60C77394012
:101930004FF6FF7707EA03172F4339434FF6FF5758
:101940003A4046F480773A4381830284F0BD028BAB
:101950004FF2FF331A400283028B4FF6FF7303EA04
:1019600001231A43028370470010004000FCFFBFB0
:10197000002C014000340140F0B50C461546002112
:1019800000220026078C4FF6EF7C07EA0C0707843D
:10199000018B028C4FF6FF7707EA041640F6FF47EB
:1019A00039404FF6FF7707EA033739434FF6FF77A1
:1019B00007EA052739434FF6DF773A4046F010072C
:1019C0003A4301830284F0BD028B4FF6F3731A4051
:1019D0000283028B0A4302837047F0B50C4615461A
:1019E00000210022068C4FF6FE773E400684018BD4
:1019F000028C4FF60C7631407E1C06EA03162E430D
:101A000031437E1E324044F001063243018302849A
:101A1000F0BD70B505460C46208850B92389A288D0
:101A200061882846FFF7D9FFE1882846FFF7CCFFF9
:101A300025E0208804280AD12389A28861882846C5
:101A4000FFF79AFFE1882846FFF781FF17E020881B
:101A500008280AD12389A28861882846FFF753FF06
:101A6000E1882846FFF746FF09E02389A2886188BC
:101A70002846FFF716FFE1882846FFF705FF70BDEF
:101A80002DE9F04105460C4600260127608808B97B
:101A9000022600E00026A088012801D1022700E0EC
:101AA00001272088A0B92389A28861882846FFF7EA
:101AB00094FFE1882846FFF787FF23893A4631469D
:101AC0002846FFF759FFE1882846FFF740FF13E05B
:101AD0002389A28861882846FFF74EFFE1882846BF
:101AE000FFF735FF23893A4631462846FFF775FF51
:101AF000E1882846FFF768FFBDE8F0810A884B8837
:101B00001A438B881A43CB881A430B891A434B8993
:101B10001A438B891A43A0F8442070474FF6FF718F
:101B2000818000210180C1804180017270470021C5
:101B3000018041808180C180018141818181C18199
:101B40007047002101804180012181800021C180F6
:101B5000018170470021018041808180C180018125
:101B600041818181704721B1028842F001020280E7
:101B700004E0028840F2FE331A400280704731B11F
:101B8000B0F8442042F40042A0F8442005E0B0F848
:101B90004420C2F30E02A0F8442070471AB1838992
:101BA0000B43838102E083898B4383817047818269
:101BB000704741EA0203A0F8483070471AB18389A0
:101BC0000B43838102E083898B43838170470189C2
:101BD0004FF6F8721140018170470A4600210189D1
:101BE0004FF68F73194011430181704730B5044699
:101BF0000D4629462046FFF7F0FF208940F00700F8
:101C0000208130BD2DE9F04104460D4616461F46A1
:101C1000602D06D13B46012231462046FFF7ACFE3F
:101C200005E03B46012231462046FFF7D6FE294615
:101C30002046FFF7D2FF208940F007002081BDE851
:101C4000F08170B50C4600210189C9B244EA020551
:101C50004FF6FF7606EA032635432943018170BD1E
:101C60002DE9F04105460E461746984600244346A6
:101C70003A4631462846FFF7E4FF2C894FF6F870C4
:101C8000044044F007044FF68F70044044F07004A1
:101C90002C81BDE8F081F0B504460D4616461F467E
:101CA0003B46324629462046FFF7CBFF208940F4C9
:101CB00080402081F0BD0185828270470A46002164
:101CC000018840F28F331940114301807047F0B50D
:101CD0000C4615461E460021002200230189028B76
:101CE000038C4FF6F877394021434FF6FC473A40D2
:101CF00040F201173A434FF6DD773B404FF6FF774E
:101D000007EA06172F433B43018102830384F0BD9A
:101D10000A460021018B4FF68F731940114301834E
:101D200070470A460021018B48F6FF7319404FF6B1
:101D3000FF7303EA02231943018370470A46002117
:101D4000818B4FF68F7319401143818370470A4688
:101D50000021818B48F6FF7319404FF6FF7303EAA9
:101D6000022319438183704721B1028842F0800227
:101D7000028004E0028840F27F331A4002807047FC
:101D800021B1828842F00402828004E082884FF60A
:101D9000FB731A408280704721B1828842F00802AA
:101DA000828004E082884FF6F7731A408280704781
:101DB00021B1828842F00102828004E082884FF6DD
:101DC000FE731A40828070470A460021018B4FF64D
:101DD000F77319401143018370470A460021018BB4
:101DE0004FF2FF7319404FF6FF7303EA02231943C2
:101DF000018370470A460021818B4FF6F773194023
:101E00001143818370470A460021818B4FF2FF7393
:101E100019404FF6FF7303EA022319438183704789
:101E20000A460021018B4FF6FB73194011430183D1
:101E300070470A460021018B4FF6FF3319404FF6D9
:101E4000FF7303EA02231943018370470A46002106
:101E5000818B4FF6FB7319401143818370470A460B
:101E60000021818B4FF6FF3319404FF6FF7303EAD1
:101E700002231943818370470A460021018B4FF6E4
:101E80007F7319401143018370470A460021018B7B
:101E9000C1F30E014FF6FF7303EA022319430183D6
:101EA00070470A460021818B4FF67F73194011431A
:101EB000818370470A460021818BC1F30E014FF6E2
:101EC000FF7303EA02231943818370470A46002106
:101ED000018C4FF6FD7319401143018470470A4687
:101EE0000021018C4FF6F7731940114301847047AC
:101EF0000A460021018C4FF6DF7319404FF6FF733D
:101F000003EA02131943018470470A460021018C39
:101F10004FF67F7319404FF6FF7303EA021319431C
:101F2000018470470A460021018C4FF6FF53194087
:101F30004FF6FF7303EA02231943018470470A46F0
:101F40000021018C4FF2FF7319404FF6FF7303EA33
:101F500002231943018470470A460021018C4DF683
:101F6000FF7319404FF6FF7303EA023319430184EC
:101F7000704710B5038C01248C40A3430384038C69
:101F800002FA01F4A4B22343038410BD10B5038CFC
:101F900004248C40A3430384038C02FA01F4A4B20A
:101FA0002343038410BD30B5038C01248C40A3432C
:101FB000038409B1082918D100F1180303EB610368
:101FC0001B684FF68F74234000F1180404EB610482
:101FD000236000F1180303EB61031B68134300F156
:101FE000180404EB610423601FE00B1FC3F34E04CD
:101FF00000F118031B5948F6FF7423400C1FC4F36B
:102000004E0500F1180463510B1FC3F34E0400F199
:1020100018031B594FF6FF7404EA022423430C1FD4
:10202000C4F34E0500F11804635130BD21B102889C
:1020300042F00202028004E0028840F2FD331A40BE
:102040000280704721B1028842F00402028004E05D
:10205000028840F2FB331A400280704721B1828827
:1020600042F08002828004E082884FF67F731A403B
:1020700082807047028840F2F7331A40028002885B
:102080000A430280704782884FF68F731A4082801D
:1020900082880A438280704702894FF6F8731A409B
:1020A000028102890A430281704702894FF67F73D9
:1020B0001A40028102890A43028170478184704775
:1020C0008185704781867047018770478187704797
:1020D000A0F8401070470288D2B2028002880A43FA
:1020E000028070470146888E70470146088F70470E
:1020F0000146888F70470146B1F84000704701469D
:10210000888C70470146088D704702460020138A6C
:102110000B400BB1012000E000207047CA4302824F
:10212000704730B50246002000230024158A05EAD6
:102130000103958905EA010413B10CB1012000E007
:10214000002030BDCA43028270470000314901437C
:10215000314A1160704770B5002100230F22C47806
:1021600004B32D4C246804F4E064C4F5E064210A4F
:10217000C1F10403CA40447804FA03F1847814409E
:1021800021430901254C0678A155047804F01F0568
:102190000124AC4005786D11AD0005F1E025C5F8CE
:1021A000004109E0047804F01F050124AC401C4DF7
:1021B0000678761145F8264070BD1A4A0A40024357
:1021C000154B1B1F1A60704739B1134A121D126854
:1021D0000243114B1B1D1A6006E00F4A121D1268C4
:1021E00082430D4B1B1D1A607047042808D14FF025
:1021F000E021096941F004014FF0E022116107E09C
:102200004FF0E021096921F004014FF0E022116153
:10221000704700000000FA050CED00E000E400E06B
:1022200080E100E080FFFF1F0CB5002001900090CE
:102230004748006840F480304549086000BF444882
:10224000006800F4003000900198401C0190009854
:1022500018B90198B0F5A06FF1D13D48006800F4BD
:10226000003010B10120009001E0002000900098A3
:10227000012844D13748006840F010003549086013
:102280000846006820F0030008600846006840F037
:10229000020008602E4840682D49486008464068A2
:1022A00048600846406840F48060486008464068DE
:1022B00020F47C1048600846406840F4E81048600C
:1022C0000846006840F08070086000BF2048006841
:1022D00000F000700028F9D01D48406820F003008D
:1022E0001B4948600846406840F00200486000BF53
:1022F0001748406800F00C000828F9D101E000BF41
:10230000FEE70CBD10B5FFF78FFF10BD10B51048EC
:10231000006840F001000E490860084640680E4918
:1023200008400B494860084600680C4908400849C5
:1023300008600846006820F480200860084640686D
:1023400020F4FE00486000208860FFF7DBFF10BD2E
:1023500000100240002002400000FFF8FFFFF6FEE0
:1023600008B501210420FEF7B9FB0F20ADF80000ED
:1023700000208DF8030069464548FEF713F908BDB3
:1023800000B591B001210846FEF79BFB4148FEF7DE
:10239000C1FD414806904148079000200890502018
:1023A000099000200A9080200B9040000C90800043
:1023B0000D9020200E9000020F900020109006A992
:1023C0003448FEF740FE01213248FEF767FE012146
:1023D0004802FEF783FB0020019001208DF80800E1
:1023E0008DF809004FF46020039000200490042031
:1023F0008DF8140001A928484C38FEF7D8FE0523B3
:102400000122002124484C38FEF769FF05230222EF
:10241000012121484C38FEF762FF052303220221E7
:102420001D484C38FEF75BFF0523042203211A48A0
:102430004C38FEF754FF012117484C38FEF7EEFEEA
:10244000012115484C38FEF7DEFE13484C38FEF7E4
:10245000FCFE00BF10484C38FEF7FCFE0028F9D106
:102460000D484C38FEF700FF00BF0B484C38FEF714
:1024700000FF0028F9D1012107484C38FEF703FF7F
:1024800011B000BD10B5FFF76BFFFFF779FF10BD6E
:1024900000080140080002404C2401406400002074
:1024A00008B501210820FEF719FB4FF4E040ADF814
:1024B000000010208DF8030003208DF8020069460B
:1024C0000448FEF76FF84FF4E0410248FEF717F9B1
:1024D00008BD0000000C014008B54FF4E060FFF7B4
:1024E00035FE1C208DF8000000208DF8010003202F
:1024F0008DF8020001208DF803006846FFF72BFEDF
:1025000008BD3EB505460C4601210846FEF7F3FA24
:1025100001218807FFF716FEADF80450ADF8004022
:102520000020ADF80600ADF8020069464FF080408B
:10253000FFF793F8012211469007FFF72FFB0121C7
:102540008807FFF710FB3EBD80EA010210B502F0DC
:102550000043400022D04A001FD0010E01EB12615F
:10256000C0F35600C2F3560240F4000042F40002E9
:10257000A0FB022000047F39140400D0401C50EA64
:10258000124001D44000491EC2B20C0604EBD01028
:10259000401C4008802A02D003E0002010BD20F03B
:1025A0000100002900DA0020184310BD30B480EA91
:1025B000010202F0004530F0004221F0004013D04B
:1025C00090B1C30DD40DC2F31601C0F31600E41A86
:1025D00041F4000140F400027D34914201D3641CB7
:1025E00000E04900002C02DA30BC002070474FF4B4
:1025F00000000023914201D3891A034340084FEAA7
:102600004101F7D151B1914202D14FF0004105E0B3
:1026100002D24FF0010101E06FF0010103EBC45061
:10262000284430BC00F022B8C10F80EAE0700844B2
:10263000CA079623002100F022B800F0004220F0E3
:102640000040C10DC0F3160040F400007F2901DAFC
:1026500000207047962903DCC1F19601C84001E0D3
:1026600096398840002AF4D0404270470029A8BF1C
:102670007047401C490008BF20F00100704710B4AB
:10268000B0FA80FC00FA0CF050EA010404BF10BC60
:10269000704749B1CCF1200421FA04F411FA0CF18D
:1026A00018BF012121430843A3EB0C01CB1D4FEAC6
:1026B00000614FEA102042BF002010BC704700EBC1
:1026C000C35010440029A4BF10BC7047401C4900EF
:1026D00008BF20F0010010BC70470000064C074DF9
:1026E00006E0E06840F0010394E8070098471034E2
:1026F000AC42F6D3FDF720FD202700084027000854
:1027000002E008C8121F08C1002AFAD170477047BA
:10271000002001E001C1121F002AFBD17047000018
:1027200040270008000000201400000000270008D7
:102730005427000814000020F402000010270008AD
:102740000000000001020304010203040607080957
:042750000204060871
:0400000508000147A7
:00000001FF
